:020000040800F2
:1000000000280020E5180008751800087B18000873
:1000100081180008871800088D18000800000000EB
:10002000000000000000000000000000931800081D
:100030009F18000800000000AB180008B71800085F
:100040002D1900082D1900082D1900082D19000878
:100050002D1900082D1900082D1900082D19000868
:100060002D1900082D1900082D1900082D19000858
:100070002D1900082D1900082D1900082D19000848
:100080002D1900082D1900082D1900082D19000838
:100090002D1900082D1900082D1900082D19000828
:1000A0002D1900082D1900082D1900082D19000818
:1000B000C51800082D190008000000002D190008BF
:1000C0002D19000800000000000000002D19000894
:1000D000000000002D1900082D1900080000000084
:1000E0002D1900082D1900082D1900080000000026
:1000F0000000000000000000000000000000000000
:0C01000000000000000000005FF808F1A3
:10010C0010B5054C237833B9044B13B10448AFF345
:10011C0000800123237010BD90000020000000001F
:10012C00882F000808B5034B1BB103490348AFF3F4
:10013C00008008BD0000000094000020882F0008FB
:10014C0080B584B000AFF860B9607A607B68002B32
:10015C0043D1FB681868BB681B880022194601F064
:10016C00E4FEFB6804331868BB6802331B8800226A
:10017C00194601F0DAFEFB6808331868BB680433D3
:10018C001B880022194601F0D0FEFB680C3318685E
:10019C00BB6806331B880022194601F0C6FEFB68BB
:1001AC0010331868BB6808331B880022194601F00D
:1001BC00BCFEFB6814331868BB680A331B8800222A
:1001CC00194601F0B2FEFB6818331868BB680C3393
:1001DC001B880122194601F0A8FE7B68012B43D134
:1001EC00FB681868BB681B880122194601F09DFE4C
:1001FC00FB6804331868BB6802331B88002219465D
:10020C0001F093FEFB6808331868BB6804331B8845
:10021C000022194601F089FEFB680C331868BB6894
:10022C0006331B880122194601F07FFEFB68103350
:10023C001868BB6808331B880122194601F075FE4B
:10024C00FB6814331868BB680A331B8801221946F3
:10025C0001F06BFEFB6818331868BB680C331B8805
:10026C000122194601F061FE7B68022B43D1FB6829
:10027C001868BB681B880022194601F056FEFB6803
:10028C0004331868BB6802331B880022194601F03E
:10029C004CFEFB6808331868BB6804331B880122CA
:1002AC00194601F042FEFB680C331868BB68063334
:1002BC001B880022194601F038FEFB6810331868C1
:1002CC00BB6808331B880022194601F02EFEFB6820
:1002DC0014331868BB680A331B880122194601F0D5
:1002EC0024FEFB6818331868BB680C331B8800228B
:1002FC00194601F01AFE7B68032B43D1FB68186882
:10030C00BB681B880022194601F00FFEFB68043302
:10031C001868BB6802331B880022194601F005FEE1
:10032C00FB6808331868BB6804331B880022194625
:10033C0001F0FBFDFB680C331868BB6806331B88A7
:10034C000022194601F0F1FDFB6810331868BB68F8
:10035C0008331B880122194601F0E7FDFB681433B2
:10036C001868BB680A331B880122194601F0DDFDB1
:10037C00FB6818331868BB680C331B8800221946BD
:10038C0001F0D3FD7B68042B43D1FB681868BB6874
:10039C001B880122194601F0C8FDFB68043318685C
:1003AC00BB6802331B880022194601F0BEFDFB68B6
:1003BC0008331868BB6804331B880022194601F007
:1003CC00B4FDFB680C331868BB6806331B8801222C
:1003DC00194601F0AAFDFB6810331868BB68083396
:1003EC001B880122194601F0A0FDFB681433186824
:1003FC00BB680A331B880022194601F096FDFB6886
:10040C0018331868BB680C331B880022194601F09E
:10041C008CFD7B68052B43D1FB681868BB681B8877
:10042C000022194601F081FDFB6804331868BB6893
:10043C0002331B880122194601F077FDFB68083353
:10044C001868BB6804331B880022194601F06DFD47
:10045C00FB680C331868BB6806331B8800221946EE
:10046C0001F063FDFB6810331868BB6808331B8808
:10047C000122194601F059FDFB6814331868BB685A
:10048C000A331B880022194601F04FFDFB68183314
:10049C001868BB680C331B880022194601F045FD17
:1004AC007B68062B43D1FB681868BB681B8800224D
:1004BC00194601F03AFDFB6804331868BB68023337
:1004CC001B880122194601F030FDFB6808331868BF
:1004DC00BB6804331B880022194601F026FDFB681B
:1004EC000C331868BB6806331B880022194601F0D0
:1004FC001CFDFB6810331868BB6808331B8800228E
:10050C00194601F012FDFB6814331868BB680A33F6
:10051C001B880022194601F008FDFB681833186887
:10052C00BB680C331B880022194601F0FEFC7B686B
:10053C00072B43D1FB681868BB681B88002219463F
:10054C0001F0F3FCFB6804331868BB6802331B88AA
:10055C000022194601F0E9FCFB6808331868BB68F7
:10056C0004331B880022194601F0DFFCFB680C33B6
:10057C001868BB6806331B880122194601F0D5FCAC
:10058C00FB6810331868BB6808331B8801221946B6
:10059C0001F0CBFCFB6814331868BB680A331B886A
:1005AC000122194601F0C1FCFB6818331868BB68BE
:1005BC000C331B880122194601F0B7FC7B68082B11
:1005CC0043D1FB681868BB681B880022194601F0F0
:1005DC00ACFCFB6804331868BB6802331B88002230
:1005EC00194601F0A2FCFB6808331868BB68043399
:1005FC001B880022194601F098FCFB680C33186824
:10060C00BB6806331B880022194601F08EFCFB6880
:10061C0010331868BB6808331B880022194601F098
:10062C0084FCFB6814331868BB680A331B880022EF
:10063C00194601F07AFCFB6818331868BB680C3358
:10064C001B880022194601F070FC7B68092B43D1F2
:10065C00FB681868BB681B880022194601F065FC12
:10066C00FB6804331868BB6802331B8800221946E8
:10067C0001F05BFCFB6808331868BB6804331B880B
:10068C000022194601F051FCFB680C331868BB685A
:10069C0006331B880022194601F047FCFB68103317
:1006AC001868BB6808331B880122194601F03DFC11
:1006BC00FB6814331868BB680A331B880022194680
:1006CC0001F033FCFB6818331868BB680C331B88CB
:1006DC000022194601F029FC00BF1037BD4680BD31
:1006EC0080B483B000AF7860074B1B687A6892FBCC
:1006FC00F3F3064A1360064B00221A6000BF0C3756
:10070C00BD4680BC704700BF00000020AC0000203C
:10071C00B000002080B483B000AF7860074B1B683A
:10072C007A6892FBF3F3064A1360064B00221A60B8
:10073C0000BF0C37BD4680BC704700BF00000020D6
:10074C00B4000020B800002080B483B000AF786003
:10075C00074B1B687A6892FBF3F3064A1360064B4F
:10076C0000221A6000BF0C37BD4680BC704700BF2A
:10077C0000000020BC000020C000002080B483B02A
:10078C0000AF7860074B1B687A6892FBF3F3064A5C
:10079C001360064B00221A6000BF0C37BD4680BCAC
:1007AC00704700BF00000020C4000020C8000020DB
:1007BC0080B400AF214B1B68002B0BDD1F4B1B685B
:1007CC00013B1E4A13601D4B1B68002B02DC1C4BAB
:1007DC0001221A601B4B1B68002B0BDD194B1B688D
:1007EC00013B184A1360174B1B68002B02DC164B9D
:1007FC0001221A60154B1B68002B0BDD134B1B6879
:10080C00013B124A1360114B1B68002B02DC104B8E
:10081C0001221A600F4B1B68002B0BDD0D4B1B6864
:10082C00013B0C4A13600B4B1B68002B02DC0A4B80
:10083C0001221A6000BFBD4680BC7047AC0000208E
:10084C00B0000020B4000020B8000020BC00002044
:10085C00C0000020C4000020C800002080B500AFFC
:10086C000C4B1B680C4A13604FF400610B4801F0F1
:10087C0045FB03461A46074B1A60064B1A68064B93
:10088C001B689A4203D1034B1B68054A136000BFD7
:10089C0080BD00BF080000200400002000080140BB
:1008AC000C00002080B500AF1A4B1B681A4A13606D
:1008BC004FF48051194801F021FB03461A46154BA1
:1008CC001A60144B1A68144B1B689A4203D1114BD3
:1008DC001B68134A1360124B1B68002B0DD1114B74
:1008EC001B68002B05DD0F4B1B680A3B0D4A136080
:1008FC000EE00D4B01221A600AE0094B1B68012B1C
:10090C0006D1084B4FF47A721A60074B00221A601A
:10091C0000BF80BD14000020100000200008014022
:10092C00180000201C000020CC00002080B500AF77
:10093C000C4B1B680C4A13604FF400510B4801F030
:10094C00DDFA03461A46074B1A60064B1A68064B2B
:10095C001B689A4203D1034B1B68054A136000BF06
:10096C0080BD00BF240000202000002000080140B2
:10097C002800002080B400AF054B1B68002B0CBF77
:10098C0001230023DBB21846BD4680BC704700BF74
:10099C000C00002080B400AF054B1B68002B0CBF73
:1009AC0001230023DBB21846BD4680BC704700BF54
:1009BC001800002080B400AF054B1B68012B0CBF46
:1009CC0001230023DBB21846BD4680BC704700BF34
:1009DC00CC00002080B400AF054B1B68002B0CBF73
:1009EC0001230023DBB21846BD4680BC704700BF14
:1009FC002800002080B500AFA74B1B78072B00F216
:100A0C00FB8201A252F823F0350A0008D30A000831
:100A1C00850B00083B0C00083F0D0008FB0D00087F
:100A2C00CD0E0008A50F000800F058FD0022022191
:100A3C009A4801F07AFA00220421984801F075FADC
:100A4C00974B1B68974A1360974B1B68974A136028
:100A5C00974B1B68974A1360914B1B68964A13601F
:100A6C00914B1B68944A5360914B1B68924A93605C
:100A7C0000222021894801F058FA904B00221A706C
:100A8C00874B1B688E4A1360874B1B688C4A5360DC
:100A9C00874B1B688A4A936000224FF400717F4891
:100AAC0001F043FA874B01221A70874B00221A601F
:100ABC00794B01221A70FA20FFF72CFE4FF47A7052
:100ACC00FFF75CFE98E2814B1B68012B06D1FA20E4
:100ADC00FFF720FE00F0DEFA00F0FCFB7C4B1B68FD
:100AEC00012B0DD14FF47A70FFF748FE7349724811
:100AFC0000F0A2FC7349724800F09EFC00F038FC38
:100B0C00724B1B68012B06D1FA20FFF703FE00F095
:100B1C00C1FA00F0DFFB6F4B1B68002B1DD1FFF7F8
:100B2C0029FF0346012B40F05A825B4B02221A70BC
:100B3C00684B01221A60FA20FFF7D2FD584B1B6854
:100B4C00584A1360584B1B68584A1360584B1B6823
:100B5C00584A136000F0C2FC41E25E4B1B68012B4B
:100B6C0040F03D82FFF706FF0346002B40F0378232
:100B7C00584B00221A6032E2002000F003FB564B67
:100B8C001B68012B0BD1FA20FFF7AAFD202143484B
:100B9C0001F0E3F94FF48071404801F0DEF94B4B62
:100BAC001B68012B0AD1FA20FFF7B4FD00F072FA92
:100BBC00022000F0D5FA002000F0E4FA454B1B6847
:100BCC00002B0DD1FFF7D6FE0346012B14D1324B6F
:100BDC0003221A703F4B01221A6000F07FFC0BE0DD
:100BEC003C4B1B68012B07D1FFF7C4FE0346002BBF
:100BFC0002D1384B00221A60FFF7ECFE0346012BA2
:100C0C0005D1254B07221A70344B00221A70FFF7BE
:100C1C00C1FE0346012B40F0E4811F4B05221A70E4
:100C2C002E4B00221A702E4B00221A60D9E10120A3
:100C3C0000F0A8FA284B1B68012B0BD1FA20FFF708
:100C4C004FFD4021154801F088F94FF4007113480D
:100C5C0001F083F91D4B1B68012B0AD1FA20FFF719
:100C6C0059FD00F017FA032000F07AFA012000F089
:100C7C0089FA184B1B68002B34D1FFF77BFE034617
:100C8C00012B3BD1044B04221A70124B01221A6027
:100C9C0000F024FC32E000BFE80000200008014016
:100CAC00D0000020DC000020D4000020E000002058
:100CBC00D8000020E4000020EC000020E900002017
:100CCC00FC000020F800002014010020B8000020D7
:100CDC00C800002008010020B000002010010020F6
:100CEC000C010020A44B1B68012B07D1FFF742FE1F
:100CFC000346002B02D1A04B00221A60FFF76AFEBC
:100D0C000346012B05D19D4B07221A709C4B0122E7
:100D1C001A70FFF73FFE0346012B40F06481974B9E
:100D2C0005221A70964B01221A70964B00221A60FB
:100D3C0059E1022000F026FA934B1B68012B0BD1D2
:100D4C00FA20FFF7CDFC8021904801F006F94FF412
:100D5C0080618E4801F001F98D4B1B68012B0AD183
:100D6C00FA20FFF7D7FC00F095F9042000F0F8F911
:100D7C00022000F007FA804B1B68002B10D1FFF704
:100D8C00F9FD0346012B17D17C4B00221A707A4BCC
:100D9C0001221A600020FFF7A3FC00F09FFB0BE080
:100DAC00754B1B68012B07D1FFF7E4FD0346002BA5
:100DBC0002D1714B00221A60FFF70CFE0346012B87
:100DCC0005D16E4B07221A706D4B02221A70FFF779
:100DDC00E1FD0346012B40F00881684B05221A7097
:100DEC00674B02221A70674B00221A60FDE0664BBB
:100DFC001B68012B07D1FA20FFF772FC604B1B78A4
:100E0C00184600F093FB624B1B68012B20D1FA2093
:100E1C00FFF780FC00F03EF9594B1B78002B03D1F7
:100E2C00022000F09DF90EE0554B1B78012B03D1ED
:100E3C00032000F095F906E0514B1B78022B02D1F0
:100E4C00042000F08DF94E4B1B78184600F09AF9EF
:100E5C00FFF7B0FD0346012B07D1484B06221A7051
:100E6C004FF4FA70FFF770FC1CE0FFF793FD03469C
:100E7C00002B16D1424B1B78022B0ED0022B11DC0F
:100E8C00002B02D0012B04D00CE03C4B02221A7038
:100E9C0008E03A4B03221A7004E0384B04221A7013
:100EAC0000E000BF374B1B68002B40F0A080344B98
:100EBC001B78184600F098F9324B01221A6096E024
:100ECC00314B1B68012B07D1FA20FFF709FC2C4B87
:100EDC001B78184600F02AFB2D4B1B68012B20D1E8
:100EEC00FA20FFF717FC00F0D5F8254B1B78002BE8
:100EFC0003D1022000F034F90EE0214B1B78012BBA
:100F0C0003D1032000F02CF906E01D4B1B78022BBB
:100F1C0002D1042000F024F9194B1B78184600F07C
:100F2C0031F9FFF737FD0346002B16D1144B1B7814
:100F3C00022B0ED0022B11DC002B02D0012B04D083
:100F4C000CE00E4B02221A7008E00C4B03221A70B4
:100F5C0004E00A4B04221A7000E000BF0D4B1B6822
:100F6C00012B46D14FF4FA70FFF7EEFB044B1B78C4
:100F7C00184600F039F93CE008010020E800002098
:100F8C00100100200C010020B000002000080140DE
:100F9C00B8000020C0000020184B1B78184600F049
:100FAC0069F9FFF717FD0346002B16D1134B1B787D
:100FBC00022B0ED0022B1EDC002B02D0012B04D0F6
:100FCC0019E00F4B02221A7008E00D4B03221A7025
:100FDC0004E00B4B04221A7000E000BF0BE000BFD2
:100FEC000AE000BF08E000BF06E000BF04E000BF5D
:100FFC0002E000BF00E000BF00BF80BD1001002078
:10100C00E800002080B483B000AF78607B680D4AA4
:10101C0082FB03129210DB17D31A0B4A1360796808
:10102C00084B83FB01239A10CB17D21A13469B0053
:10103C0013445B00CA1A044B5A6000BF0C37BD4600
:10104C0080BC7047676666661801002080B483B068
:10105C0000AF78607B680D4A82FB03129210DB179D
:10106C00D31A0B4A13607968084B83FB01239A103F
:10107C00CB17D21A13469B0013445B00CA1A044BBD
:10108C005A6000BF0C37BD4680BC70476766666609
:10109C002001002080B400AF084B1B680133074AC5
:1010AC001360064B1B680222934202DB034B0022A7
:1010BC001A6000BFBD4680BC704700BF1401002001
:1010CC0080B582B000AF78607B68002B03D07B6862
:1010DC00012B19D031E0012204211A4800F025FF20
:1010EC0000220221174800F020FF174B1B681A46FC
:1010FC0016491748FFF724F8164B1B681A46164971
:10110C001648FFF71DF818E0012202210D4800F0E7
:10111C000CFF002204210B4800F007FF0A4B5B6810
:10112C001A460A490A48FFF70BF80A4B5B681A463D
:10113C0009490A48FFF704F800BF00BF0837BD464D
:10114C0080BD00BF000801401801002048000020AD
:10115C002C000020200100207400002058000020EA
:10116C0080B582B000AF78607868FFF74BFF044B16
:10117C001B681846FFF7A4FF00BF0837BD4680BDAB
:10118C001401002080B582B000AF0346FB71FB79DF
:10119C00022B12D0022B16DC002B02D0012B06D016
:1011AC0011E00D4B1B681846FFF750FF0BE00B4B83
:1011BC001B681846FFF74AFF05E0094B1B681846E9
:1011CC00FFF744FF00BF074B1B681846FFF778FF7B
:1011DC0000BF0837BD4680BDDC000020E0000020C9
:1011EC00E40000201401002080B483B000AF03465B
:1011FC00FB71FB79022B20D0022B30DC002B02D0B0
:10120C00012B0DD02BE0184B1B680133164A1360D1
:10121C00154B1B68632B1DDD134B01221A6019E063
:10122C00124B1B680133114A1360104B1B68632B64
:10123C0012DD0E4B01221A600EE00D4B1B680133C0
:10124C000B4A1360084B1B68632B07DD084B01220C
:10125C001A6003E000BF02E000BF00E000BF00BF67
:10126C000C37BD4680BC7047DC000020E00000203D
:10127C00E400002080B483B000AF0346FB71FB791F
:10128C00022B10D0022B13DC002B02D0012B05D02B
:10129C000EE00A4B1B680A4A136009E0094B1B68F5
:1012AC00094A136004E0094B1B68094A136000BF2C
:1012BC0000BF0C37BD4680BC704700BFDC0000206F
:1012CC00D0000020E0000020D4000020E40000202A
:1012DC00D800002080B500AF204B1B78022B12D019
:1012EC00022B16DC002B02D0012B06D011E01C4B7C
:1012FC001B681846FFF786FE0BE0194B5B68184617
:10130C00FFF780FE05E0164B9B681846FFF77AFE48
:10131C0000BF144B1B78022B12D0022B16DC002BB7
:10132C0002D0012B06D011E00F4B1B681846FFF7BB
:10133C008DFE0BE00C4B5B681846FFF787FE05E053
:10134C00094B9B681846FFF781FE00BF074B1B68D3
:10135C001846FFF7B5FE00BF80BD00BFE9000020B6
:10136C00EC000020F8000020FC00002014010020FC
:10137C0080B500AF2D4B1B78002B09D1002220210A
:10138C002B4800F0D2FD01228021294800F0CDFD30
:10139C00264B1B78012B09D100224021244800F058
:1013AC00C4FD01222021224800F0BFFD1F4B1B78F9
:1013BC00022B09D1002280211D4800F0B6FD01222C
:1013CC0040211B4800F0B1FD1A4B1B78002B0BD1B0
:1013DC0000224FF48071164800F0A7FD01224FF453
:1013EC008061134800F0A1FD124B1B78012B0BD12F
:1013FC0000224FF400710E4800F097FD01224FF4CB
:10140C0080710B4800F091FD0A4B1B78022B0BD11D
:10141C0000224FF48061064800F087FD01224FF452
:10142C000071034800F081FD00BF80BDE900002081
:10143C0000080140F800002080B483B000AF786051
:10144C0039603B681B78002B10D17B681B685A1ED7
:10145C007B681A607B681B68002B34DC1C4B1A6899
:10146C007B681A603B6801221A702CE03B681B7881
:10147C00012B12D17B6804331A68013A1A607B681D
:10148C0004331B68002B1EDC7B680433114A126882
:10149C001A603B6802221A7015E03B681B78022B1D
:1014AC0011D17B6808331A68013A1A607B680833DB
:1014BC001B68002B07DC7B680833074A12681A602C
:1014CC003B6800221A7000BF0C37BD4680BC7047C9
:1014DC00D0000020D4000020D800002080B500AF40
:1014EC0001222021104800F020FD012240210E484D
:1014FC0000F01BFD012280210B4800F016FD01229B
:10150C004FF48071084800F010FD01224FF4007177
:10151C00054800F00AFD01224FF48061024800F0FA
:10152C0004FD00BF80BD00BF0008014080B582B043
:10153C0000AF0346FB71FB79022B1AD0022B22DC85
:10154C00002B02D0012B0AD01DE02021104800F006
:10155C0004FD4FF480710E4800F0FFFC13E04021B5
:10156C000B4800F0FAFC4FF40071094800F0F5FC50
:10157C0009E08021064800F0F0FC4FF4806104483B
:10158C0000F0EBFC00BF00BF0837BD4680BD00BFBC
:10159C000008014080B500AF00F0C4F900F01CF861
:1015AC0000F0A2F800F054F8074801F027F9074BB7
:1015BC0005221A60064B02221A60064B03221A609F
:1015CC00FFF718FAFCE700BF28010020D00000202C
:1015DC00D4000020D800002080B590B000AF07F1F7
:1015EC00180328220021184601F0C0FC3B1D0022E4
:1015FC001A605A609A60DA601A610223BB61012397
:10160C00BB621023FB6200237B6307F118031846AF
:10161C0000F0BCFC0346002B01D000F0D9F80F23DE
:10162C007B600023BB600023FB6000233B61002335
:10163C007B613B1D0021184600F02AFF0346002B5E
:10164C0001D000F0C5F800BF4037BD4680BD00009A
:10165C0080B586B000AF07F1080300221A605A600B
:10166C009A60DA603B4600221A605A601D4B4FF0BC
:10167C0080421A601B4B41F63F725A60194B002294
:10168C009A60184B0A22DA60164B00221A61154B2D
:10169C0000229A61134801F061F80346002B01D037
:1016AC0000F096F84FF48053BB6007F1080319461D
:1016BC000C4801F0F7F90346002B01D000F088F834
:1016CC0000233B6000237B603B461946054801F034
:1016DC00BFFB0346002B01D000F07AF800BF18378F
:1016EC00BD4680BD2801002080B586B000AF07F153
:1016FC00080300221A605A609A60DA60294B9B69D1
:10170C00284A43F004039361264B9B6903F00403BE
:10171C007B607B68234B9B69224A43F008039361EF
:10172C00204B9B6903F008033B603B68002240F2AE
:10173C00E6711D4800F0F9FB002243F6FF711B48CF
:10174C0000F0F3FB40F2E673BB600123FB60002367
:10175C003B6102237B6107F108031946124800F034
:10176C0051FA43F6FF73BB600123FB6000233B611E
:10177C0002237B6107F1080319460C4800F042FA7A
:10178C004FF46053BB600023FB6001233B6107F106
:10179C0008031946044800F035FA00BF1837BD4657
:1017AC0080BD00BF0010024000080140000C014049
:1017BC0080B582B000AF7860FEF7FAFFFFF74EF805
:1017CC00FFF770F8FFF7B2F800BF0837BD4680BDD1
:1017DC0080B400AF72B600BFFEE7000080B483B0E7
:1017EC0000AF0E4B9B690D4A43F0010393610B4B09
:1017FC009B6903F001037B607B68084BDB69074A3C
:10180C0043F08053D361054BDB6903F080533B609D
:10181C003B6800BF0C37BD4680BC704700100240CF
:10182C0080B584B000AF78607B681B68B3F1804FE3
:10183C0013D10C4BDB690B4A43F00103D361094B09
:10184C00DB6903F00103FB60FB68002200211C2014
:10185C0000F0A1F91C2000F0BAF900BF1037BD460A
:10186C0080BD00BF0010024080B400AFFEE780B422
:10187C0000AFFEE780B400AFFEE780B400AFFEE738
:10188C0080B400AFFEE780B400AF00BFBD4680BCA3
:10189C00704780B400AF00BFBD4680BC704780B4B9
:1018AC0000AF00BFBD4680BC704780B500AF00F0F4
:1018BC007FF800BF80BD000080B500AF024800F08B
:1018CC00E9FF00BF80BD00BF2801002080B400AF3D
:1018DC0000BFBD4680BC70470C480D490D4A002323
:1018EC0002E0D458C4500433C4188C42F9D30A4AC9
:1018FC000A4C002301E013600432A242FBD3FFF731
:10190C00E5FF01F00FFBFFF745FE704700000020DC
:10191C0090000020C82F00089000002074010020C7
:10192C00FEE7000080B500AF084B1B68074A43F088
:10193C0010031360032000F023F90F2000F008F8C7
:10194C00FFF74CFF0023184680BD00BF002002406B
:10195C0080B582B000AF7860124B1A68124B1B78BE
:10196C0019464FF47A73B3FBF1F3B2FBF3F3184659
:10197C0000F03BF90346002B01D001230EE07B68FD
:10198C000F2B0AD8002279684FF0FF3000F003F9D2
:10199C00064A7B681360002300E0012318460837D1
:1019AC00BD4680BD840000208C00002088000020F3
:1019BC0080B400AF054B1B781A46054B1B681344CB
:1019CC00034A136000BFBD4680BC70478C000020EA
:1019DC007001002080B400AF024B1B681846BD4656
:1019EC0080BC70477001002080B485B000AF786077
:1019FC007B6803F00703FB600C4BDB68BB60BA68C9
:101A0C004FF6FF031340BB60FB681A02BB6813431D
:101A1C0043F0BF6343F40033BB60044ABB68D3603C
:101A2C0000BF1437BD4680BC704700BF00ED00E01E
:101A3C0080B400AF044BDB681B0A03F007031846A5
:101A4C00BD4680BC704700BF00ED00E080B483B0A1
:101A5C0000AF0346FB7197F90730002B0BDBFB79CA
:101A6C0003F01F02064997F907305B09012000FAC1
:101A7C0002F241F8232000BF0C37BD4680BC7047F2
:101A8C0000E100E080B483B000AF03463960FB7125
:101A9C0097F90730002B0ADB3B68DAB20C4997F94F
:101AAC0007301201D2B20B4483F800230AE03B68E2
:101ABC00DAB20849FB7903F00F03043B1201D2B2EE
:101ACC000B441A7600BF0C37BD4680BC704700BF74
:101ADC0000E100E000ED00E080B489B000AFF860F8
:101AEC00B9607A60FB6803F00703FB61FB69C3F123
:101AFC000703042B28BF0423BB61FB690433062BAB
:101B0C0002D9FB69033B00E000237B614FF0FF32FD
:101B1C00BB6902FA03F3DA43BB681A407B699A404B
:101B2C004FF0FF317B6901FA03F3D9437B680B401B
:101B3C00134318462437BD4680BC704780B582B02D
:101B4C0000AF78607B68013BB3F1807F01D3012348
:101B5C000FE00A4A7B68013B53600F214FF0FF30C6
:101B6C00FFF790FF054B00229A60044B07221A6086
:101B7C00002318460837BD4680BD00BF10E000E0CA
:101B8C0080B582B000AF78607868FFF72DFF00BF9A
:101B9C000837BD4680BD80B586B000AF0346B9603E
:101BAC007A60FB7300237B61FFF742FF78617A68F0
:101BBC00B9687869FFF790FF024697F90F30114624
:101BCC001846FFF75FFF00BF1837BD4680BD80B5D4
:101BDC0082B000AF0346FB7197F907301846FFF748
:101BEC0035FF00BF0837BD4680BD80B582B000AF61
:101BFC0078607868FFF7A2FF034618460837BD46A1
:101C0C0080BD000080B48BB000AF786039600023D9
:101C1C007B6200233B6261E101227B6A02FA03F3DF
:101C2C00FB613B681B68FA691340BB61BA69FB69CD
:101C3C009A4240F050813B685B68974A93425ED071
:101C4C00954A934275D8954A934258D0934A9342F9
:101C5C006FD8934A934252D0914A934269D8914A91
:101C6C0093424CD08F4A934263D88F4A934246D0CA
:101C7C008D4A93425DD8122B2AD8122B59D801A227
:101C8C0052F823F00B1D0008E51C0008F71C000897
:101C9C00391D00083F1D00083F1D00083F1D0008AE
:101CAC003F1D00083F1D00083F1D00083F1D000898
:101CBC003F1D00083F1D00083F1D00083F1D000888
:101CCC003F1D00083F1D0008ED1C0008011D000809
:101CDC00764A934213D02CE03B68DB683B6229E0E8
:101CEC003B68DB6804333B6224E03B68DB68083309
:101CFC003B621FE03B68DB680C333B621AE03B68DD
:101D0C009B68002B02D104233B6213E03B689B6869
:101D1C00012B05D108233B627B68FA691A6109E043
:101D2C0008233B627B68FA695A6103E000233B623B
:101D3C0000E000BFBB69FF2B01D87B6801E07B682A
:101D4C0004337B61BB69FF2B02D87B6A9B0002E0EA
:101D5C007B6A083B9B003B617B691A680F213B69DE
:101D6C0001FA03F3DB431A40396A3B6901FA03F3C6
:101D7C001A437B691A603B685B6803F08053002B45
:101D8C0000F0A9804A4B9B69494A43F001039361D7
:101D9C00474B9B6903F00103BB60BB68454A7B6AF8
:101DAC009B08023352F82330FB607B6A03F0030379
:101DBC009B000F2202FA03F3DB43FA681340FB602B
:101DCC007B683D4A93420DD07B683C4A934207D0D6
:101DDC007B683B4A934201D1022304E0032302E0D7
:101DEC00012300E000237A6A02F003029200934080
:101DFC00FA681343FB602F497B6A9B080233FA682D
:101E0C0041F823203B685B6803F48033002B06D039
:101E1C002C4B1A682B49BB6913430B6006E0294B0A
:101E2C001A68BB69DB43274913400B603B685B684E
:101E3C0003F40033002B06D0224B5A682149BB69AE
:101E4C0013434B6006E01F4B5A68BB69DB431D49CB
:101E5C0013404B603B685B6803F48013002B06D087
:101E6C00184B9A681749BB6913438B6006E0154BF6
:101E7C009A68BB69DB43134913408B603B685B6812
:101E8C0003F40013002B1FD00E4BDA680D49BB690D
:101E9C001343CB601FE000BF000032100000311074
:101EAC000000221000002110000012100000111080
:101EBC00001002400000014000080140000C0140ED
:101ECC0000100140000401400B4BDA68BB69DB4396
:101EDC0009491340CB607B6A01337B623B681A680B
:101EEC007B6A22FA03F3002B7FF496AE00BF00BF8F
:101EFC002C37BD4680BC70470004014080B485B0CF
:101F0C0000AF78600B467B807B689A687B881340B7
:101F1C00002B02D00123FB7301E00023FB73FB7B3E
:101F2C0018461437BD4680BC704780B483B000AFF0
:101F3C0078600B467B8013467B707B78002B03D03C
:101F4C007A887B681A6103E07B881A047B681A61C3
:101F5C0000BF0C37BD4680BC704780B485B000AF65
:101F6C0078600B467B807B68DB68FB607A88FB685B
:101F7C0013401A04FB68D9437B880B401A437B68D7
:101F8C001A6100BF1437BD4680BC704780B586B05F
:101F9C0000AF78607B68002B01D1012372E27B6873
:101FAC001B6803F00103002B00F08780924B5B68E9
:101FBC0003F00C03042B0CD08F4B5B6803F00C0369
:101FCC00082B12D18C4B5B6803F48033B3F5803F44
:101FDC000BD1894B1B6803F40033002B6CD07B684E
:101FEC005B68002B68D101234CE27B685B68B3F51E
:101FFC00803F06D1804B1B687F4A43F480331360CB
:10200C002EE07B685B68002B0CD17B4B1B687A4AFB
:10201C0023F480331360784B1B68774A23F48023B6
:10202C0013601DE07B685B68B3F5A02F0CD1724B7D
:10203C001B68714A43F4802313606F4B1B686E4A14
:10204C0043F4803313600BE06B4B1B686A4A23F438
:10205C0080331360684B1B68674A23F4802313603A
:10206C007B685B68002B13D0FFF7B4FC386108E089
:10207C00FFF7B0FC02463B69D31A642B01D903234A
:10208C0000E25D4B1B6803F40033002BF0D014E02E
:10209C00FFF7A0FC386108E0FFF79CFC02463B69A7
:1020AC00D31A642B01D90323ECE1534B1B6803F4C3
:1020BC000033002BF0D100E000BF7B681B6803F0FD
:1020CC000203002B63D04C4B5B6803F00C03002B1A
:1020DC000BD0494B5B6803F00C03082B1CD1464B0F
:1020EC005B6803F48033002B16D1434B1B6803F061
:1020FC000203002B05D07B681B69012B01D0012347
:10210C00C0E13D4B1B6823F0F8027B685B69DB0088
:10211C00394913430B603AE07B681B69002B20D0D4
:10212C00364B01221A60FFF755FC386108E0FFF7C7
:10213C0051FC02463B69D31A022B01D90323A1E1BE
:10214C002D4B1B6803F00203002BF0D02A4B1B68AD
:10215C0023F0F8027B685B69DB00274913430B60B3
:10216C0015E0264B00221A60FFF734FC386108E0BA
:10217C00FFF730FC02463B69D31A022B01D903232B
:10218C0080E11D4B1B6803F00203002BF0D17B6830
:10219C001B6803F00803002B3AD07B689B69002B6B
:1021AC0019D0174B01221A60FFF714FC386108E0B4
:1021BC00FFF710FC02463B69D31A022B01D903230B
:1021CC0060E10D4B5B6A03F00203002BF0D00120A1
:1021DC0000F0A6FA1CE00A4B00221A60FFF7FAFB8B
:1021EC0038610FE0FFF7F6FB02463B69D31A022B6E
:1021FC0008D9032346E100BF001002400000424210
:10220C0080044242924B5B6A03F00203002BE9D13B
:10221C007B681B6803F00403002B00F0A6800023EE
:10222C00FB758B4BDB6903F08053002B0DD1884B76
:10223C00DB69874A43F08053D361854BDB6903F03C
:10224C008053BB60BB680123FB75824B1B6803F496
:10225C008073002B18D17F4B1B687E4A43F480732C
:10226C001360FFF7B7FB386108E0FFF7B3FB0246DA
:10227C003B69D31A642B01D9032303E1754B1B680B
:10228C0003F48073002BF0D07B68DB68012B06D144
:10229C006F4B1B6A6E4A43F0010313622DE07B689F
:1022AC00DB68002B0CD16A4B1B6A694A23F00103D3
:1022BC001362674B1B6A664A23F0040313621CE02B
:1022CC007B68DB68052B0CD1614B1B6A604A43F0C1
:1022DC00040313625E4B1B6A5D4A43F001031362F5
:1022EC000BE05B4B1B6A5A4A23F001031362584BF9
:1022FC001B6A574A23F0040313627B68DB68002BCC
:10230C0015D0FFF767FB38610AE0FFF763FB024665
:10231C003B69D31A41F28832934201D90323B1E0CD
:10232C004B4B1B6A03F00203002BEED014E0FFF7BB
:10233C0051FB38610AE0FFF74DFB02463B69D31AAB
:10234C0041F28832934201D903239BE0404B1B6A34
:10235C0003F00203002BEED1FB7D012B05D13C4B8E
:10236C00DB693B4A23F08053D3617B68DB69002B2C
:10237C0000F08780364B5B6803F00C03082B61D0B0
:10238C007B68DB69022B46D1334B00221A60FFF7C6
:10239C0021FB386108E0FFF71DFB02463B69D31AAD
:1023AC00022B01D903236DE0294B1B6803F000734A
:1023BC00002BF0D17B681B6AB3F5803F08D1244B0E
:1023CC005B6823F400327B689B68214913434B60A4
:1023DC001F4B5B6823F474127B68196A7B685B6A19
:1023EC000B431B4913434B601B4B01221A60FFF735
:1023FC00F1FA386108E0FFF7EDFA02463B69D31AAF
:10240C00022B01D903233DE0114B1B6803F0007331
:10241C00002BF0D035E0104B00221A60FFF7DAFAEF
:10242C00386108E0FFF7D6FA02463B69D31A022B53
:10243C0001D9032326E0064B1B6803F00073002B25
:10244C00F0D11EE07B68DB69012B07D1012319E079
:10245C000010024000700040600042420B4B5B6871
:10246C00FB60FB6803F480327B681B6A9A4206D1DE
:10247C00FB6803F470127B685B6A9A4201D00123FB
:10248C0000E0002318461837BD4680BD00100240FE
:10249C0080B584B000AF786039607B68002B01D1C7
:1024AC000123D0E06A4B1B6803F007033A689A4299
:1024BC0010D9674B1B6823F0070265493B6813432F
:1024CC000B60634B1B6803F007033A689A4201D018
:1024DC000123B8E07B681B6803F00203002B20D0BB
:1024EC007B681B6803F00403002B05D0594B5B6819
:1024FC00584A43F4E06353607B681B6803F008039D
:10250C00002B05D0534B5B68524A43F46053536025
:10251C00504B5B6823F0F0027B689B684D4913437A
:10252C004B607B681B6803F00103002B40D07B6879
:10253C005B68012B07D1474B1B6803F40033002B5E
:10254C0015D101237FE07B685B68022B07D1414BDF
:10255C001B6803F00073002B09D1012373E03D4B82
:10256C001B6803F00203002B01D101236BE0394BF4
:10257C005B6823F003027B685B68364913434B604E
:10258C00FFF728FAF8600AE0FFF724FA0246FB6826
:10259C00D31A41F28832934201D9032353E02D4BD5
:1025AC005B6803F00C027B685B689B009A42EBD182
:1025BC00274B1B6803F007033A689A4210D2244B4E
:1025CC001B6823F0070222493B6813430B60204B26
:1025DC001B6803F007033A689A4201D0012332E0EA
:1025EC007B681B6803F00403002B08D0194B5B6855
:1025FC0023F4E0627B68DB68164913434B607B680D
:10260C001B6803F00803002B09D0124B5B6823F402
:10261C0060527B681B69DB000E4913434B6000F072
:10262C0021F802460B4B5B681B0903F00F030A49A8
:10263C00CB5C22FA03F3094A1360094B1B6818465A
:10264C00FFF786F9002318461037BD4680BD00BF42
:10265C000020024000100240B02F0008840000202F
:10266C008800002090B48AB000AF294B3C1D0FCBE2
:10267C0084E80F0040F201233B800023FB61002320
:10268C00BB6100237B6200237B6100233B62214BF7
:10269C005B68FB61FB6903F00C03042B02D0082B75
:1026AC0003D02BE01C4B3B622BE0FB699B0C03F033
:1026BC000F0328333B4413F8243C7B61FB6903F480
:1026CC008033002B12D0134B5B685B0C03F00103BF
:1026DC0028333B4413F8283CBB617B690E4A03FB4F
:1026EC0002F2BB69B2FBF3F37B6204E07B690B4A39
:1026FC0002FB03F37B627B6A3B6202E0064B3B62AC
:10270C0000BF3B6A18462837BD4690BC704700BFD7
:10271C00A02F00080010024000127A0000093D00B2
:10272C0080B485B000AF78600A4B1B680A4AA2FBE4
:10273C0003235B0A7A6802FB03F3FB6000BFFB68B0
:10274C005A1EFA60002BF9D100BF00BF1437BD46EA
:10275C0080BC704784000020D34D621080B582B0DD
:10276C0000AF78607B68002B01D1012341E07B68CE
:10277C0093F83D30DBB2002B06D17B68002283F846
:10278C003C207868FFF74CF87B68022283F83D20E8
:10279C007B681A687B6804331946104600F06AFAA5
:1027AC007B68012283F846207B68012283F83E2057
:1027BC007B68012283F83F207B68012283F840204C
:1027CC007B68012283F841207B68012283F8422038
:1027DC007B68012283F843207B68012283F8442024
:1027EC007B68012283F845207B68012283F83D2019
:1027FC00002318460837BD4680BD000080B485B064
:10280C0000AF78607B6893F83D30DBB2012B01D0D0
:10281C00012335E07B68022283F83D207B681B682E
:10282C00DA687B681B6842F00102DA607B681B681F
:10283C00164A934209D07B681B68B3F1804F04D0D1
:10284C007B681B68124A934211D17B681B689B689A
:10285C0003F00703FB60FB68062B10D07B681B683A
:10286C001A687B681B6842F001021A6007E07B68FB
:10287C001B681A687B681B6842F001021A6000230F
:10288C0018461437BD4680BC704700BF002C014071
:10289C000004004080B582B000AF78607B681B6894
:1028AC001B6903F00203022B22D17B681B68DB68D7
:1028BC0003F00203022B1BD17B681B686FF0020232
:1028CC001A617B6801221A777B681B689B6903F08D
:1028DC000303002B03D0786800F0B1F905E07868A9
:1028EC0000F0A4F9786800F0B3F97B6800221A773D
:1028FC007B681B681B6903F00403042B22D17B68E3
:10290C001B68DB6803F00403042B1BD17B681B687A
:10291C006FF004021A617B6802221A777B681B68CD
:10292C009B6903F44073002B03D0786800F087F99F
:10293C0005E0786800F07AF9786800F089F97B682E
:10294C0000221A777B681B681B6903F00803082BAD
:10295C0022D17B681B68DB6803F00803082B1BD1B2
:10296C007B681B686FF008021A617B6804221A7777
:10297C007B681B68DB6903F00303002B03D07868CA
:10298C0000F05DF905E0786800F050F9786800F027
:10299C005FF97B6800221A777B681B681B6903F060
:1029AC001003102B22D17B681B68DB6803F010032B
:1029BC00102B1BD17B681B686FF010021A617B68AF
:1029CC0008221A777B681B68DB6903F44073002BC1
:1029DC0003D0786800F033F905E0786800F026F948
:1029EC00786800F035F97B6800221A777B681B68E1
:1029FC001B6903F00103012B0ED17B681B68DB689C
:102A0C0003F00103012B07D17B681B686FF00102F7
:102A1C001A617868FEF7CCFE7B681B681B6903F0B3
:102A2C008003802B0ED17B681B68DB6803F080036E
:102A3C00802B07D17B681B686FF080021A61786865
:102A4C0000F067FA7B681B681B6903F04003402B9E
:102A5C000ED17B681B68DB6803F04003402B07D169
:102A6C007B681B686FF040021A61786800F0F9F817
:102A7C007B681B681B6903F02003202B0ED17B683D
:102A8C001B68DB6803F02003202B07D17B681B68D5
:102A9C006FF020021A61786800F032FA00BF083734
:102AAC00BD4680BD80B584B000AF786039607B686E
:102ABC0093F83C30012B01D10223B3E07B68012257
:102ACC0083F83C207B68022283F83D207B681B68DE
:102ADC009B68FB60FB6823F07703FB60FB6823F4C7
:102AEC007F43FB607B681B68FA689A603B681B68D5
:102AFC00B3F5005F3ED0B3F5005F00F28780B3F50D
:102B0C00805F00F08580B3F5805F7FD8702B1AD082
:102B1C00702B7BD8602B50D0602B77D8502B3CD0AF
:102B2C00502B73D8402B58D0402B6FD8302B64D0FF
:102B3C00302B6BD8202B60D0202B67D8002B5CD08F
:102B4C00102B5AD062E07B6818683B6899683B6828
:102B5C005A683B68DB6800F05CF97B681B689B6813
:102B6C00FB60FB6843F07703FB607B681B68FA68CB
:102B7C009A604EE07B6818683B6899683B685A68B5
:102B8C003B68DB6800F045F97B681B689A687B68DA
:102B9C001B6842F480429A603BE07B6818683B6893
:102BAC0059683B68DB681A4600F0BCF87B681B6808
:102BBC005021184600F013F92BE07B6818683B682D
:102BCC0059683B68DB681A4600F0DAF87B681B68CA
:102BDC006021184600F003F91BE07B6818683B681D
:102BEC0059683B68DB681A4600F09CF87B681B68E8
:102BFC004021184600F0F3F80BE07B681A683B683C
:102C0C001B681946104600F0EAF802E000BF00E02D
:102C1C0000BF7B68012283F83D207B68002283F88B
:102C2C003C20002318461037BD4680BD80B483B0CD
:102C3C0000AF786000BF0C37BD4680BC704780B4D5
:102C4C0083B000AF786000BF0C37BD4680BC7047C6
:102C5C0080B483B000AF786000BF0C37BD4680BC39
:102C6C00704780B483B000AF786000BF0C37BD46AE
:102C7C0080BC704780B485B000AF786039607B68E9
:102C8C001B68FB607B68254A934207D07B68B3F1D5
:102C9C00804F03D07B68224A934208D1FB6823F013
:102CAC007003FB603B685B68FA681343FB607B68EE
:102CBC001A4A934207D07B68B3F1804F03D07B68EC
:102CCC00174A934208D1FB6823F44073FB603B68BE
:102CDC00DB68FA681343FB60FB6823F080023B68F7
:102CEC005B691343FB607B68FA681A603B689A68FF
:102CFC007B68DA623B681A687B689A627B68074A71
:102D0C00934203D13B681A697B681A637B68012282
:102D1C005A6100BF1437BD4680BC7047002C01407F
:102D2C000004004080B487B000AFF860B9607A60EE
:102D3C00FB681B6A7B61FB681B6A23F00102FB6862
:102D4C001A62FB689B693B613B6923F0F0033B61B2
:102D5C007B681B013A6913433B617B6923F00A03CF
:102D6C007B617A69BB6813437B61FB683A699A6142
:102D7C00FB687A691A6200BF1C37BD4680BC70477D
:102D8C0080B487B000AFF860B9607A60FB681B6AEA
:102D9C0023F01002FB681A62FB689B697B61FB687D
:102DAC001B6A3B617B6923F470437B617B681B036B
:102DBC007A6913437B613B6923F0A0033B61BB68D9
:102DCC001B013A6913433B61FB687A699A61FB68A2
:102DDC003A691A6200BF1C37BD4680BC704780B48C
:102DEC0085B000AF786039607B689B68FB60FB68DE
:102DFC0023F07003FB603A68FB68134343F007034E
:102E0C00FB607B68FA689A6000BF1437BD4680BCD3
:102E1C00704780B487B000AFF860B9607A603B60EF
:102E2C00FB689B687B617B6923F47F437B613B6818
:102E3C001A027B681A43BB6813437A6913437B619C
:102E4C00FB687A699A6000BF1C37BD4680BC70472E
:102E5C0080B485B000AF786039607B6893F83C3003
:102E6C00012B01D1022341E07B68012283F83C2035
:102E7C007B68022283F83D207B681B685B68FB60E3
:102E8C007B681B689B68BB60FB6823F07003FB606E
:102E9C003B681B68FA681343FB607B681B68FA6825
:102EAC005A607B681B68144A934209D07B681B6884
:102EBC00B3F1804F04D07B681B68104A93420CD14D
:102ECC00BB6823F08003BB603B685B68BA68134344
:102EDC00BB607B681B68BA689A607B68012283F8C8
:102EEC003D207B68002283F83C20002318461437D1
:102EFC00BD4680BC704700BF002C01400004004060
:102F0C0080B483B000AF786000BF0C37BD4680BC86
:102F1C00704780B483B000AF786000BF0C37BD46FB
:102F2C0080BC704770B500260C4D0D4C641BA41072
:102F3C00A64209D100F022F800260A4D0A4C641B67
:102F4C00A410A64205D170BD55F8043B9847013634
:102F5C00EEE755F8043B98470136F2E7C02F00081E
:102F6C00C02F0008C02F0008C42F000803460244DD
:102F7C00934200D1704703F8011BF9E7F8B500BF85
:102F8C00F8BC08BC9E467047F8B500BFF8BC08BC3E
:042F9C009E46704796
:102FA00002030405060708090A0B0C0D0E0F10108A
:102FB00000000000000000000102030406070809E9
:042FC00031010008D3
:042FC4000D010008F3
:102FC8000A000000010000000100000001000000EC
:102FD800010000000100000001000000E8030000FB
:102FE800010000000100000001000000000C014089
:102FF800000C0140000C0140000C0140000C014095
:10300800000C0140000C014001000200040008000F
:103018001000200040000000000C0140000C01409E
:10302800000C0140000C0140000C0140000C014064
:10303800000C01408000000100020004000800109C
:10304800002000000024F40010000000010000002F
:04000005080018E5F2
:00000001FF
